{
  "contractName": "Sample",
  "abi": [
    {
      "constant": true,
      "inputs": [],
      "name": "stateBool",
      "outputs": [
        {
          "name": "",
          "type": "bool"
        }
      ],
      "payable": false,
      "stateMutability": "view",
      "type": "function"
    },
    {
      "constant": false,
      "inputs": [],
      "name": "toggleBool",
      "outputs": [],
      "payable": false,
      "stateMutability": "nonpayable",
      "type": "function"
    }
  ],
  "bytecode": "0x608060405260008060006101000a81548160ff02191690831515021790555034801561002a57600080fd5b5060f3806100396000396000f3fe6080604052348015600f57600080fd5b506004361060325760003560e01c806304deee401460375780634a6c4f0b146051575b600080fd5b603d6059565b604051604891906094565b60405180910390f35b6057606b565b005b6000809054906101000a900460ff1681565b60016000806101000a81548160ff021916908315150217905550565b608e8160ad565b82525050565b600060208201905060a760008301846087565b92915050565b6000811515905091905056fea265627a7a72305820cca497a44be511d764327a0e910fed5b868cdeb265c1cd2b1275582d1ccb4a716c6578706572696d656e74616cf50037",
  "source": "pragma solidity ^0.5.0;\npragma experimental ABIEncoderV2;\n\ncontract Sample {\n  bool public stateBool = false;\n\n  function toggleBool() external {\n    stateBool = true;\n  }\n}\n",
  "sourcePath": "/home/nioni/Documents/work/research_2/smart_contracts/Sample.sol",
  "compiler": {
    "name": "solc",
    "version": "0.5.8+commit.23d335f2.Emscripten.clang"
  },
  "schemaVersion": "3.0.11",
  "updatedAt": "2019-08-13T13:10:55.951Z",
  "devdoc": {
    "methods": {}
  },
  "userdoc": {
    "methods": {}
  }
}